{
  "_format": "hh-sol-artifact-1",
  "contractName": "Dmail",
  "sourceName": "contracts/Dmail.sol",
  "abi": [
    {
      "inputs": [
        {
          "internalType": "address",
          "name": "_token_address",
          "type": "address"
        }
      ],
      "stateMutability": "nonpayable",
      "type": "constructor"
    },
    {
      "inputs": [],
      "name": "connectUser",
      "outputs": [],
      "stateMutability": "nonpayable",
      "type": "function"
    },
    {
      "inputs": [],
      "name": "getInbox",
      "outputs": [
        {
          "components": [
            {
              "internalType": "address",
              "name": "sender",
              "type": "address"
            },
            {
              "internalType": "string",
              "name": "message",
              "type": "string"
            },
            {
              "internalType": "uint256",
              "name": "timestamp",
              "type": "uint256"
            },
            {
              "internalType": "string",
              "name": "subject",
              "type": "string"
            }
          ],
          "internalType": "struct Dmail.Message[]",
          "name": "inbox",
          "type": "tuple[]"
        }
      ],
      "stateMutability": "view",
      "type": "function"
    },
    {
      "inputs": [
        {
          "internalType": "address",
          "name": "_to",
          "type": "address"
        },
        {
          "internalType": "string",
          "name": "subject",
          "type": "string"
        },
        {
          "internalType": "string",
          "name": "_message",
          "type": "string"
        }
      ],
      "name": "sendMessage",
      "outputs": [],
      "stateMutability": "nonpayable",
      "type": "function"
    }
  ],
  "bytecode": "0x608060405234801561001057600080fd5b50604051610ddd380380610ddd8339818101604052810190610032919061008d565b806000806101000a81548173ffffffffffffffffffffffffffffffffffffffff021916908373ffffffffffffffffffffffffffffffffffffffff160217905550506100ff565b600081519050610087816100e8565b92915050565b60006020828403121561009f57600080fd5b60006100ad84828501610078565b91505092915050565b60006100c1826100c8565b9050919050565b600073ffffffffffffffffffffffffffffffffffffffff82169050919050565b6100f1816100b6565b81146100fc57600080fd5b50565b610ccf8061010e6000396000f3fe608060405234801561001057600080fd5b50600436106100415760003560e01c8063368c093c146100465780636fb6df4314610064578063bae2739b14610080575b600080fd5b61004e61008a565b60405161005b91906109f8565b60405180910390f35b61007e60048036038101906100799190610736565b6102b0565b005b6100886104ef565b005b60606000600260003373ffffffffffffffffffffffffffffffffffffffff1673ffffffffffffffffffffffffffffffffffffffff168152602001908152602001600020805480602002602001604051908101604052809291908181526020016000905b828210156102a357838290600052602060002090600402016040518060800160405290816000820160009054906101000a900473ffffffffffffffffffffffffffffffffffffffff1673ffffffffffffffffffffffffffffffffffffffff1673ffffffffffffffffffffffffffffffffffffffff16815260200160018201805461017690610be1565b80601f01602080910402602001604051908101604052809291908181526020018280546101a290610be1565b80156101ef5780601f106101c4576101008083540402835291602001916101ef565b820191906000526020600020905b8154815290600101906020018083116101d257829003601f168201915b505050505081526020016002820154815260200160038201805461021290610be1565b80601f016020809104026020016040519081016040528092919081815260200182805461023e90610be1565b801561028b5780601f106102605761010080835404028352916020019161028b565b820191906000526020600020905b81548152906001019060200180831161026e57829003601f168201915b505050505081525050815260200190600101906100ed565b5050505090508091505090565b6000825114156102f5576040517f08c379a00000000000000000000000000000000000000000000000000000000081526004016102ec90610a7c565b60405180910390fd5b60008151141561033a576040517f08c379a000000000000000000000000000000000000000000000000000000000815260040161033190610a3c565b60405180910390fd5b612728815111156103be576103836040518060400160405280601081526020017f4d65737361676520746f6f206c6f6e6700000000000000000000000000000000815250610554565b6040517f08c379a00000000000000000000000000000000000000000000000000000000081526004016103b590610a5c565b60405180910390fd5b600260008473ffffffffffffffffffffffffffffffffffffffff1673ffffffffffffffffffffffffffffffffffffffff16815260200190815260200160002060405180608001604052803373ffffffffffffffffffffffffffffffffffffffff16815260200183815260200142815260200184815250908060018154018082558091505060019003906000526020600020906004020160009091909190915060008201518160000160006101000a81548173ffffffffffffffffffffffffffffffffffffffff021916908373ffffffffffffffffffffffffffffffffffffffff16021790555060208201518160010190805190602001906104c0929190610616565b506040820151816002015560608201518160030190805190602001906104e7929190610616565b505050505050565b6001339080600181540180825580915050600190039060005260206000200160009091909190916101000a81548173ffffffffffffffffffffffffffffffffffffffff021916908373ffffffffffffffffffffffffffffffffffffffff160217905550565b6105ea816040516024016105689190610a1a565b6040516020818303038152906040527f41304fac000000000000000000000000000000000000000000000000000000007bffffffffffffffffffffffffffffffffffffffffffffffffffffffff19166020820180517bffffffffffffffffffffffffffffffffffffffffffffffffffffffff83818316178352505050506105ed565b50565b60008151905060006a636f6e736f6c652e6c6f679050602083016000808483855afa5050505050565b82805461062290610be1565b90600052602060002090601f016020900481019282610644576000855561068b565b82601f1061065d57805160ff191683800117855561068b565b8280016001018555821561068b579182015b8281111561068a57825182559160200191906001019061066f565b5b509050610698919061069c565b5090565b5b808211156106b557600081600090555060010161069d565b5090565b60006106cc6106c784610acd565b610a9c565b9050828152602081018484840111156106e457600080fd5b6106ef848285610b9f565b509392505050565b60008135905061070681610c82565b92915050565b600082601f83011261071d57600080fd5b813561072d8482602086016106b9565b91505092915050565b60008060006060848603121561074b57600080fd5b6000610759868287016106f7565b935050602084013567ffffffffffffffff81111561077657600080fd5b6107828682870161070c565b925050604084013567ffffffffffffffff81111561079f57600080fd5b6107ab8682870161070c565b9150509250925092565b60006107c1838361097f565b905092915050565b6107d281610b63565b82525050565b60006107e382610b0d565b6107ed8185610b30565b9350836020820285016107ff85610afd565b8060005b8581101561083b578484038952815161081c85826107b5565b945061082783610b23565b925060208a01995050600181019050610803565b50829750879550505050505092915050565b600061085882610b18565b6108628185610b41565b9350610872818560208601610bae565b61087b81610c71565b840191505092915050565b600061089182610b18565b61089b8185610b52565b93506108ab818560208601610bae565b6108b481610c71565b840191505092915050565b60006108cc601783610b52565b91507f4d6573736167652063616e6e6f7420626520656d7074790000000000000000006000830152602082019050919050565b600061090c601083610b52565b91507f4d65737361676520746f6f206c6f6e67000000000000000000000000000000006000830152602082019050919050565b600061094c601783610b52565b91507f5375626a6563742063616e6e6f7420626520656d7074790000000000000000006000830152602082019050919050565b600060808301600083015161099760008601826107c9565b50602083015184820360208601526109af828261084d565b91505060408301516109c460408601826109e9565b50606083015184820360608601526109dc828261084d565b9150508091505092915050565b6109f281610b95565b82525050565b60006020820190508181036000830152610a1281846107d8565b905092915050565b60006020820190508181036000830152610a348184610886565b905092915050565b60006020820190508181036000830152610a55816108bf565b9050919050565b60006020820190508181036000830152610a75816108ff565b9050919050565b60006020820190508181036000830152610a958161093f565b9050919050565b6000604051905081810181811067ffffffffffffffff82111715610ac357610ac2610c42565b5b8060405250919050565b600067ffffffffffffffff821115610ae857610ae7610c42565b5b601f19601f8301169050602081019050919050565b6000819050602082019050919050565b600081519050919050565b600081519050919050565b6000602082019050919050565b600082825260208201905092915050565b600082825260208201905092915050565b600082825260208201905092915050565b6000610b6e82610b75565b9050919050565b600073ffffffffffffffffffffffffffffffffffffffff82169050919050565b6000819050919050565b82818337600083830152505050565b60005b83811015610bcc578082015181840152602081019050610bb1565b83811115610bdb576000848401525b50505050565b60006002820490506001821680610bf957607f821691505b60208210811415610c0d57610c0c610c13565b5b50919050565b7f4e487b7100000000000000000000000000000000000000000000000000000000600052602260045260246000fd5b7f4e487b7100000000000000000000000000000000000000000000000000000000600052604160045260246000fd5b6000601f19601f8301169050919050565b610c8b81610b63565b8114610c9657600080fd5b5056fea264697066735822122016b9272595a33c4103445d681a89e3f7dfee426aa57a94e4d896170b84e2876864736f6c63430008000033",
  "linkReferences": {},
  "deployedLinkReferences": {}
}